:020000040800F2
:10000000005000207D010008C5010008C50100085E
:10001000C5010008C5010008C50100080000000076
:10002000000000000000000000000000C501000802
:10003000C501000800000000C5010008C501000856
:10004000C5010008C5010008C5010008C501000878
:10005000C5010008C5010008C5010008C501000868
:10006000C5010008C5010008C5010008C501000858
:10007000C5010008C5010008C5010008C501000848
:10008000C5010008C5010008C5010008C501000838
:10009000C5010008C5010008C5010008C501000828
:1000A000C5010008C5010008C5010008C501000818
:1000B000C5010008C5010008C5010008C501000808
:1000C000C5010008C5010008C5010008C5010008F8
:1000D000C5010008C5010008C5010008C5010008E8
:1000E000C5010008C5010008C501000800000000A6
:1000F0000000000000000000000000000000000000
:0C01000000000000000000005FF808F1A3
:10010C0010402DE928409FE50030D4E5000053E372
:10011C000500001A1C309FE5000053E318009F15E2
:10012C0000F020130130A0E30030C4E51040BDE81E
:10013C001EFF2FE11000002000000000D40D00086D
:10014C001C309FE5000053E31EFF2F0110402DE9EA
:10015C0010109FE510009FE500F020E31040BDE873
:10016C001EFF2FE10000000014000020D40D000839
:10017C0000F024F80B480C490C4A002302E0D45838
:10018C00C4500433C4188C42F9D3094A094C0023D7
:10019C0001E013600432A242FBD300F037FD00F003
:1001AC0013FD70470000002010000020340E0008E2
:1001BC0010000020C8010020FEE70000704700BFBF
:1001CC00704700BF38B54FF47A730D4A0546117865
:1001DC000C4AB3FBF1F31268B2FBF3F000F062FCD3
:1001EC0008B90F2D01D9012038BD04460246294615
:1001FC004FF0FF3000F01AFC034B20461D6038BD59
:10020C00040000200000002008000020074A08B568
:10021C001368032043F01003136000F0F5FB0F206C
:10022C00FFF7D0FFFFF7CCFF002008BD00200240F5
:10023C00014B1868704700BF2C00002038B50446ED
:10024C00FFF7F6FF631C054602D0044B1B781C44D9
:10025C00FFF7EEFF401BA042FAD338BD040000208C
:10026C00002800F0B6812DE9F04103680446DD0753
:10027C0082B035D59A494A6802F00C02042A00F083
:10028C00EF804A6802F00C02082A00F0E5806368EF
:10029C00B3F5803F10D0002B00F00C81B3F5A02FEC
:1002AC0000F082818E4B1A6822F480321A601A6830
:1002BC0022F480221A6004E0894A136843F48033E4
:1002CC001360FFF7B5FF864E054605E0FFF7B0FF5C
:1002DC00401B642800F2EA8033689A03F6D5236841
:1002EC009F0728D57E4A516811F00C0F00F08D80C5
:1002FC00516801F00C01082900F083802369002B60
:10030C0000F018810122774B754E1A60FFF790FFB1
:10031C00054605E0FFF78CFF401B022800F2C68063
:10032C0033689807F6D53368626923F0F80343EA1B
:10033C00C203336023681A071FD45D0742D5684B8C
:10034C00DA69D0007DD50025674E3368D90540F1B8
:10035C009D80E368012B00F0FE80002B00F0CA802A
:10036C00052B5F4B1A6A00F02C8122F001021A62F5
:10037C001A6A22F004021A62F2E0A369002B4FD031
:10038C000122584B564EC3F88024FFF751FF054607
:10039C0005E0FFF74DFF401B022800F28780736ACF
:1003AC009B07F6D5514B524A1B68A2FB03235B0AF1
:1003BC00019300BF019B5A1E0192002BF9D12368B7
:1003CC005D07BCD4E369C3B1454D6A6802F00C0209
:1003DC00082A00F0D8800022022B424B1A6600F04B
:1003EC00FA80FFF725FF044604E0FFF721FF001B0E
:1003FC0002285BD82B689B01F7D4002002B0BDE823
:10040C00F0815268D6033FF579AF354A12689507EB
:10041C0030D52269012A2DD0012002B0BDE8F0812F
:10042C00304A2F4EC2F88034FFF702FF054604E035
:10043C00FFF7FEFE401B022838D8736A9F07F7D4DB
:10044C00BDE7DA69012542F08052DA61DB6903F01D
:10045C0080530093009B77E74A68D0037FF517AF72
:10046C001F4A126891037FF53BAF6268002A7FF444
:10047C0037AFD1E71A4960690A6822F0F80242EAFC
:10048C00C0020A601A077FF558AF76E7336843F469
:10049C0080733360FFF7CCFE07463368DA053FF50F
:1004AC0058AFFFF7C5FEC01B6428F6D9032002B075
:1004BC00BDE8F0810A4D2B6823F480332B602B6848
:1004CC0023F480232B60FFF7B3FE064604E0FFF70E
:1004DC00AFFE801B6428E9D82B689B03F7D4FEE69B
:1004EC00001002400000424200700040000000205A
:1004FC00D34D6210504E41F28838336A23F0010319
:10050C003362336A23F004033362FFF791FE07462C
:10051C0004E0FFF78DFEC01B4045C7D8336A98072F
:10052C00F7D4002D3FF44EAF434AD36923F08053E8
:10053C00D36147E7414A404E1360FFF779FE054609
:10054C0004E0FFF775FE401B0228AFD8336899070B
:10055C00F7D42368EFE6384A136A43F001031362B9
:10056C00FFF766FE41F288380646334F04E0FFF78A
:10057C005FFE801B404599D83B6A9B07F7D5002D41
:10058C003FF420AFD0E7012B3FF446AF6B68226AF3
:10059C0003F4803191427FF43FAF606A03F470132F
:1005AC00181A18BF012029E703F18043A3F53C3347
:1005BC001A6842F480221A601A6842F480321A6077
:1005CC007FE642F004021A621A6A42F001021A62D1
:1005DC00C6E701207047FFF72BFE064605E0FFF744
:1005EC0027FE801B02283FF661AF2B689901F6D4D9
:1005FC00236AB3F5803F05D16A68A16822F4003202
:10060C000A436A6001200C4D616A6A680B4322F44C
:10061C0074120A4913436B600866FFF709FE04461F
:10062C0005E0FFF705FE001B02283FF63FAF2B68E5
:10063C009A01F6D5E1E600BF0010024000004242EC
:10064C000E4A536803F00C01082901D00C4870477E
:10065C000C48C3F38341DB03405C0AD5084953685B
:10066C0001FB00F0084AC3F34043D35CB0FBF3F04A
:10067C007047064B03FB00F0704700BF00100240B0
:10068C0000127A00180E0008140E000800093D0034
:10069C00002800F08C80494A2DE9F041136804468B
:1006AC0003F007038B420D460CD2136823F00703AB
:1006BC000B431360136803F007038B4202D0012035
:1006CC00BDE8F0812368980714D5590704D53C4937
:1006DC004A6842F4E0624A601A0704D538494A680D
:1006EC0042F460524A603649A0684A6822F0F0022F
:1006FC0002434A60DF0720D56268314B012A1B6830
:10070C0057D0022A50D09907D9D52D4E41F28838AE
:10071C00736823F0030313437360FFF789FD0746E7
:10072C0004E0FFF785FDC01B404545D8736862683F
:10073C0003F00C03B3EB820FF3D1204A136803F0E0
:10074C000703AB4209D9136823F007032B4313604B
:10075C00136803F00703AB42B1D123685A0706D5DF
:10076C001749E0684A6822F4E06202434A601B07BA
:10077C0007D5134A2169536823F4605343EAC10334
:10078C005360FFF75DFF03460D4A0E4952680E4851
:10079C00C2F30312895C0D4ACB4000681360FFF76B
:1007AC0011FD0020BDE8F0819801AED487E701204F
:1007BC0070479E03A9D482E7032081E70020024002
:1007CC0000100240040E0008080000200000002069
:1007DC00014B1868704700BF000000202DE9F04F56
:1007EC000C6885B0002C00F0A4800022031D01933E
:1007FC0001254FF00F08924613468146744F06E0D0
:10080C00013334FA03F002F1040200F0928005FA8D
:10081C0003F030EA040C00EA0406F1D14C68122C07
:10082C0000F28F80122C0DD8DFE804F09D0AA9CFBE
:10083C000C0C0C0C0C0C0C0C0C0C0C0C0CB1AD00B2
:10084C00D1F80CA0FF2E99BF4C469446019CA2F106
:10085C00200C206808FA0CFE20EA0E000AFA0CFCA8
:10086C0040EA0C0020604C68E00068D5B86923F0C1
:10087C00030C40F00100B861B8690CF1804C00F039
:10088C00010003900CF5803C03F0030E03984FEA33
:10089C008E0EDCF8080008FA0EFB20EA0B00DFF8DD
:1008AC0034B1D94513D00BF5806BD94573D0DFF833
:1008BC0028B1D9455CD0DFF824B1D9450CBF4FF035
:1008CC00030B4FF0040B0BFA0EFB40EA0B00CCF8B9
:1008DC000800DFF80CC114F4801FDCF8080014BF0A
:1008EC003043B043CCF80800DFF8F4C014F4001F18
:1008FC00DCF80C0014BF3043B043CCF80C00DFF82C
:10090C00E0C014F4003FDCF8040014BF3043B043E3
:10091C0014F4803F324CCCF8040020680CD03043E7
:10092C0020600C68013334FA03F002F104027FF406
:10093C006EAF05B0BDE8F08F20EA060020600C68B1
:10094C005EE7DFF8A0C064450DD02BD8ACF5801C59
:10095C00644508D00CF5702C644504D0ACF5801CB3
:10096C0064457FF46FAF8C6834BB4FF0040A69E7C1
:10097C004FF0020B0BFA0EFB40EA0B00A7E7C8681E
:10098C0000F1080A5EE7C86800F10C0A5AE7C8686B
:10099C0000F1040A56E74FF0010B0BFA0EFB40EA8C
:1009AC000B0094E7DFF840C06445DCD00CF5803CCC
:1009BC0064457FF447AFD6E7012C4FF0080A0CBF13
:1009CC00C9F81000C9F814003CE74FF0000A39E7E9
:1009DC0000100240000801400010014000140140CA
:1009EC0000040140000022100000311002B909047B
:1009FC0001617047C36801EA030221EA030141EA7D
:100A0C0002410161704700BF4FF6FF0C064903021B
:100A1C00CA6803F4E06302EA0C02134343F0BF63B9
:100A2C0043F40033CB60704700ED00E01B4B00B586
:100A3C00DB68C3F30223C3F1070EBEF1040F03F10D
:100A4C00040C28BF4FF0040EBCF1060F1CD9A3F107
:100A5C00030C4FF0FF3303FA0CF322EA03024FF0BE
:100A6C00FF3303FA0EF321EA030303FA0CF31343E7
:100A7C001B010028DBB20ADB00F1604000F561408D
:100A8C0080F800335DF804FB00229446E7E7044A43
:100A9C0000F00F00024413765DF804FB00ED00E05B
:100AAC00FCEC00E00138B0F1807F01D301207047ED
:100ABC004FF0E0234FF0F00C0022072110B4044C4F
:100ACC00586184F823C010469A6110BC19617047B4
:100ADC0000ED00E04FF0E022136904280CBF43F056
:100AEC00040323F004031361704700BF00200221AC
:100AFC0030B54FF4005401250E4B87B09A6942F083
:100B0C0010029A619B69049003F0100300F180407D
:100B1C000193059100F5883002A9019BCDE90245AE
:100B2C00FFF75CFE01224FF400510348FFF75EFF14
:100B3C0007B030BD0010024000100140FFF75ABF53
:100B4C000023012210B5012090B04FF48031022413
:100B5C00CDE90B33CDE90233CDE90433089301938E
:100B6C000A9209934FF480324FF4E013CDE9060159
:100B7C0006A8CDE90E230D94FFF772FB00B1FEE73A
:100B8C0003464FF00F0C4FF48062214601A80294EB
:100B9C0003930593CDF804C00492FFF779FD00B1DF
:100BAC00FEE7FFF715FE074BA3FB00308009FFF7AC
:100BBC0079FF0420FFF78EFF10B0BDE81040FFF75F
:100BCC0095BF00BFD34D621008B5FFF71FFBFFF7B1
:100BDC00B7FF4FF400510448FFF7B0FF4FF4FA7021
:100BEC00FFF72CFBF5E700BF001001400030A0E33D
:100BFC0010402DE90010A0E10320A0E10300A0E1CA
:100C0C00380000EB1040BDE81EFF2FE170402DE9CD
:100C1C0074309FE574509FE5050053E1056043E097
:100C2C000800000A0040A0E34661A0E1045045E240
:100C3C000430B5E5014084E20FE0A0E113FF2FE1A1
:100C4C00040056E1F9FFFF8A5E0000EB40509FE57F
:100C5C0040309FE5056043E0050053E14661A0E1AB
:100C6C000700000A0040A0E3045045E20430B5E55B
:100C7C00014084E20FE0A0E113FF2FE1040056E1F4
:100C8C00F9FFFF8A7040BDE81EFF2FE1280E000817
:100C9C00280E0008280E0008300E000870402DE9C0
:100CAC0030509FE530409FE5044045E04441B0E1C1
:100CBC000500000A043035E5014044E20FE0A0E1F4
:100CCC0013FF2FE1000054E3F9FFFF1A430000EB80
:100CDC007040BDE81EFF2FE1340E0008300E0008F6
:100CEC001EFF2FE11EFF2FE1F0412DE9A0809FE5B3
:100CFC000040A0E1000098E50360A0E10150A0E1F4
:100D0C000270A0E1F5FFFFEB88309FE500C093E592
:100D1C0000005CE380C09F0504E09CE500C08305F7
:100D2C001F005EE3000098E5160000CA000054E3C3
:100D3C000700001A01308EE202E08EE204308CE5EE
:100D4C000E518CE7E6FFFFEB0000A0E3F041BDE89D
:100D5C001EFF2FE10130A0E30E118CE0887081E5BD
:100D6C0088219CE5133EA0E1032082E188218CE5DB
:100D7C00086181E5020054E38C219C05033082015B
:100D8C008C318C05EAFFFFEAD5FFFFEB0000E0E3B6
:100D9C00EDFFFFEA0C000020C4010020340000200D
:100DAC0018309FE5000053E31EFF2F0110402DE982
:100DBC000C009FE58CFFFFEB1040BDE81EFF2FE100
:100DCC0000000000A80C00080DC0A0E1F8DF2DE920
:100DDC0004B04CE228D04BE2F06F9DE81EFF2FE1EF
:100DEC000DC0A0E1F8DF2DE904B04CE228D04BE2B5
:080DFC00F06F9DE81EFF2FE1DE
:100E040000000000000000000102030406070809B6
:100E14000102000002030405060708090A0B0C0D71
:040E24000E0F10108D
:080E2800AC0D00084C010008AC
:040E30000C010008A9
:100E340000127A00010000001000000030000020C1
:040000050800017D71
:00000001FF
